:100000000C9434000C943E000C943E000C943E0082
:100010000C943E000C943E000C943E000C943E0068
:100020000C943E000C943E000C943E000C943E0058
:100030000C943E000C943E000C943E000C943E0048
:100040000C943E000C943E000C943E000C943E0038
:100050000C943E000C943E000C943E000C943E0028
:100060000C943E000C943E0011241FBECFEFD8E04C
:10007000DEBFCDBF0E9440000C94A1000C94000094
:10008000389806D056B1452F413081F024C0FACFC0
:100090001CE214B911E51CBD1AE028E031D01BE0C8
:1000A00026E02ED01CE021E02BD0089534D012E0C1
:1000B0002DE326D013E02DE723D014E026E720D04F
:1000C00015E02BE71DD016E02FE61AD017E026E446
:1000D00017D02DD0D7DF26D012E021E011D013E0C9
:1000E0002BE50ED014E027E70BD015E027E408D06D
:1000F00016E02FE405D017E021E002D018D0C2DFCF
:100100002A981EBD3DB537FFFDCF2EBD3DB537FF4B
:10011000FDCF2A9A08952A98219A209A289A299AF6
:100120002A9A08952A98219820982A9A089558EC96
:100130006FEF74EA7A95F1F76A95D9F75A95C1F796
:060140000895F894FFCFC2
:00000001FF
